:100000000FC033C032C031C030C0FFC02EC02DC0C1
:10001000A4C02BC02AC029C08BC127C026C0DB01C9
:1000200011241FBECFE5D2E0DEBFCDBF10E0A0E6B9
:10003000B0E0EAE9F4E002C005900D92A637B107FE
:10004000D9F710E0A6E7B0E001C01D92A338B107D0
:10005000E1F710E0C0E2D0E003C02297FE0117D222
:10006000CE31D107D1F76ED116C2CACFC49885E47C
:100070008A95F1F7000088E00CC070E060FF02C0D4
:10008000C49A01C0C4987595679595E49A95F1F75F
:100090000000815090F7C49A85E48A95F1F700003A
:1000A00095E49A95F1F7000008950F931F93CF936D
:1000B000DF93EC01062F172F02C0CE01D7DFF80126
:1000C00061918F016623C9F7DF91CF911F910F9145
:1000D0000895EF92FF920F931F93CF93DF93EC015C
:1000E000E42EF52E062F172F17FF08C01095009548
:1000F000F094E094E11CF11C011D111D8AE0E8164A
:10010000F104010511055CF0C801B7012AE030E0F7
:1001100040E050E07DD1CE01BA01A901DADFC8018B
:10012000B7012AE030E040E050E072D1605DCE01DE
:100130009DDFDF91CF911F910F91FF90EF90089578
:100140006CE094DF0895CF93DF93EC01C49AF8DF5D
:10015000CE01F6DFDF91CF9108951F920F920FB677
:100160000F9211242F933F934F935F936F937F933D
:100170008F939F93AF93BF9380917F009091800066
:1001800024B135B10397532F40E030E0242B352BB9
:10019000820F931F9093800080937F0080917D0059
:1001A00090917E00009741F480917F0090918000B3
:1001B00090937E0080937D00809181008F5F80937B
:1001C000810080918100843188F080917F0090913E
:1001D000800064E170E008D170937E0060937D0040
:1001E0001092800010927F0010928100BF91AF9119
:1001F0009F918F917F916F915F914F913F912F913F
:100200000F900FBE0F901F9018951F920F920FB670
:100210000F9211242F935F936F937F938F939F93EC
:10022000AF93BF93809182008F5F80938200809113
:100230007A00823041F1833009F461C0813051F09D
:1002400081E080937A0010BEC19A109279001092DA
:1002500078005FC08091780090917900019690932A
:1002600079008093780080917800909179008132B4
:10027000910508F44EC082E080937A008FEF8EBD26
:1002800081ED80BF46C080917D0090917E0021E08D
:100290008C32920728F41EBC83E080937A0039C028
:1002A00080917D0090917E0021E08B34920738F0A0
:1002B0008FEF90E090937C0080937B001AC0809138
:1002C0007D0090917E0088519148880F991F9093EE
:1002D0007C0080937B0080917B0090917C006FEF8D
:1002E00070E070D064E670E07FD070937C00609323
:1002F0007B0080917B0090917C008EBD0AC0809134
:100300007D0090917E0021E08F32920710F01092D4
:100310007A008FED86B9BF91AF919F918F917F91B8
:100320006F915F912F910F900FBE0F901F901895B6
:100330001F920F920FB60F9211240F900FBE0F90C5
:100340001F90189514BE8DE188BB82E187BB1ABC53
:1003500085E083BF82E089BF8FE887B98FED86B9DA
:1003600088E181BD88EE81BD85B7877E85BF85B771
:10037000806285BF789486E790E0E5DE8895A89551
:1003800081B5806481BD809182008132B8F3109282
:10039000820086E790E0D4DE86E790E060E670E0D9
:1003A00084DE40917D0050917E0060E070E086E741
:1003B00090E08FDEE3CF85E690E090937700809326
:1003C000760008955527002480FF02C0060E571FAF
:1003D000660F771F6115710521F096958795009737
:1003E00099F7952F802D0895AA1BBB1B51E107C0DB
:1003F000AA1FBB1FA617B70710F0A61BB70B881FB5
:10040000991F5A95A9F780959095BC01CD01089543
:1004100097FB092E05260ED057FD04D014D00AD024
:10042000001C38F450954095309521953F4F4F4F23
:100430005F4F0895F6F790958095709561957F4F81
:100440008F4F9F4F0895A1E21A2EAA1BBB1BFD01DF
:100450000DC0AA1FBB1FEE1FFF1FA217B307E407A3
:10046000F50720F0A21BB30BE40BF50B661F771FFB
:10047000881F991F1A9469F76095709580959095DB
:100480009B01AC01BD01CF010895EE0FFF1F059048
:0A049000F491E02D0994F894FFCFD9
:10049A004144433A003031323334353637383961E2
:0604AA0062636465660058
:00000001FF
