:100000000FC033C032C031C030C0A5C02EC02DC01B
:100010004EC02BC02AC029C02DC127C026C0B301A5
:1000200011241FBECFE5D2E0DEBFCDBF10E0A0E6B9
:10003000B0E0EAE4F4E002C005900D92A637B10703
:10004000D9F720E0A6E7B0E001C01D92A338B207BF
:10005000E1F710E0C0E1D0E003C02197FE01EDD14F
:10006000CF30D107D1F744D1EEC1CACFC49895E4BF
:100070009A95F1F7000049E0415079F0282F30E0DF
:1000800080FF09C0C49AC9019595879595E49A9512
:10009000F1F70000F1CFC498F6CFC49A85E48A95B1
:1000A000F1F7000095E49A95F1F7000008951F928A
:1000B0000F920FB60F9211242F933F935F936F937C
:1000C0007F938F939F93AF93BF9394B185B120910A
:1000D0007800309179008927982789270397820F24
:1000E000931F909379008093780080917A0090918B
:1000F0007B00892B41F48091780090917900909356
:100100007B0080937A00809177008F5F80937700E7
:1001100080917700843188F0809178009091790007
:1001200064E170E038D170937B0060937A001092A4
:1001300079001092780010927700BF91AF919F9153
:100140008F917F916F915F913F912F910F900FBE93
:100150000F901F9018951F920F920FB60F921124B7
:100160002F935F936F937F938F939F93AF93BF93DF
:10017000809176008F5F8093760080917E00823040
:10018000A1F1833009F46BC08130C1F081E080932C
:100190007E0010BEC19A1092800010927F008FEDF9
:1001A00086B9BF91AF919F918F917F916F915F9130
:1001B0002F910F900FBE0F901F90189580917F0088
:1001C0009091800001969093800080937F008091B1
:1001D0007F0090918000819710F382E080937E00F1
:1001E0008FEF8EBD81ED80BFDACF80917A00909144
:1001F0007B008C32914028F41EBC83E080937E000B
:10020000CECF80917A0090917B008B34914060F04A
:100210008FEF90E090937D0080937C0080917C0034
:1002200090917D008EBDBBCF80917A0090917B0034
:1002300088519148880F991F90937D0080937C008E
:1002400080917C0090917D006FEF70E093D064E628
:1002500070E0A1D070937D0060937C00DFCF80912F
:100260007A0090917B008F32914008F498CF1092E1
:100270007E0095CF1F920F920FB60F9211240F9010
:100280000FBE0F901F901895CF92DF92EF92FF92C2
:10029000CF93DF93EC016A017B01F7FE08C0F09475
:1002A000E094D094C094C11CD11CE11CF11C8AE0E4
:1002B000C816D104E104F1045CF0C701B6012AE0DC
:1002C00030E040E050E07BD0BA01A901CE01DCDF94
:1002D000C701B6012AE030E040E050E070D080E392
:1002E000860FDF91CF91FF90EF90DF90CF90BECE41
:1002F00014BE8DE188BB82E187BB1ABC85E083BF59
:1003000082E089BF8FE887B98FED86B988E181BD2A
:100310008FE481BD85B7877E85BF85B7806285BF45
:100320007894C49A8CE0A2DE8CE0A0DE17E4889575
:10033000A89511BD809176008132C8F310927600A5
:100340008CE094DEC0E6D0E08991882311F08EDE47
:10035000FBCF40917A0050917B0070E060E081E833
:1003600090E092DFE4CF85E690E090938200809366
:10037000810008950024552704C0080E591F880FD6
:10038000991F009729F076956795B8F37105B9F72D
:10039000802D952F0895AA1BBB1B51E107C0AA1FF2
:1003A000BB1FA617B70710F0A61BB70B881F991F16
:1003B0005A95A9F780959095BC01CD010895052E19
:1003C00097FB16F400940FD057FD05D014D007FC0E
:1003D00002D046F408C050954095309521953F4F86
:1003E0004F4F5F4F089590958095709561957F4F21
:1003F0008F4F9F4F0895A1E21A2EAA1BBB1BFD0130
:100400000DC0AA1FBB1FEE1FFF1FA217B307E407F3
:10041000F50720F0A21BB30BE40BF50B661F771F4B
:10042000881F991F1A9469F760957095809590952B
:100430009B01AC01BD01CF010895EE0FFF1F059098
:0A044000F491E02D0994F894FFCF29
:10044A004144433A00303132333435363738396132
:06045A00626364656600A8
:00000001FF
